:020000040800F2
:10000000B0010120ED010008B5B00008418C0008E6
:1000100079AE0008A111000811FA000800000000E4
:1000200000000000000000000000000061C30008A4
:100030009121000800000000F1B10008BDCB0008CC
:10004000070200080702000807020008070200086C
:10005000070200080702000807020008070200085C
:10006000070200080702000807020008211F000815
:100070002D1F0008391F0008451F0008511F0008E8
:10008000070200080702000807020008070200082C
:100090006DF90008CD230008D923000807020008E5
:1000A000070200080702000807020008070200080C
:1000B00007020008070200080702000807020008FC
:1000C00007020008070200080702000807020008EC
:1000D000070200083DE1000849E1000855E1000879
:1000E00007020008070200080702000807020008CC
:1000F00007020008070200080702000807020008BC
:1001000007020008070200080702000807020008AB
:1001100069CF000875CF0008070200080702000831
:10012000070200080702000807020008070200088B
:10013000070200080702000807020008070200087B
:10014000070200080702000807020008070200086B
:10015000070200080702000807020008070200085B
:10016000070200080702000807020008070200084B
:1001700007020008070200087DCC000807020008FB
:10018000070200080702000807020008070200082B
:100190000702000800000000E5230008F123000822
:1001A000FD230008092400080702000807020008D0
:1001B00007020008070200085D1F00080702000888
:1001C00007020008070200080702000807020008EB
:1001D0000702000807020008DFF80CD000F098FBC7
:1001E00000480047ED190108B0010120064880478A
:1001F00006480047FEE7FEE7FEE7FEE7FEE7FEE70C
:10020000FEE7FEE7FEE7FEE769CC0008D90100083B
:100210002DE9F05F0546002092469B46884606463B
:10022000814640241BE0284641464746224600F0CE
:1002300067FA53465A46C01A914110D311461846E0
:10024000224600F04EFA2D1A67EB01084F4622466F
:100250000120002100F045FA17EB00094E41201E55
:10026000A4F10104DFDC484631462A464346BDE896
:10027000F09F40EA01039B0703D009E008C9121F61
:1002800008C0042AFAD203E011F8013B00F8013B50
:10029000521EF9D27047D2B201E000F8012B491E7C
:1002A000FBD270470022F6E710B513460A46044613
:1002B0001946FFF7F0FF204610BD421C10F8011B45
:1002C0000029FBD1801A70472DE9FE4F804681EA54
:1002D0000300C00F0C46009021F0004123F00045C0
:1002E000B8EB0200A94105D24046214690461C4683
:1002F0000B46024623F00040104347D0270DC7F3BA
:100300000A00C3F30A510290401A019040286BDAA8
:10031000C3F3130040F4801B0098924620B10023E1
:10032000D2EB030A63EB0B0B01985946C0F1400274
:10033000504600F0D6F906460D4650465946019AF9
:1003400000F0EEF910EB08006141002487EA115239
:1003500084EAE7731A4340D0009A62B3019A012AF3
:100360004FEA075215DC001B61EB02014FF000421F
:1003700002EA0752CDE90042001C41F580113246E5
:100380002B4600F025FA03B0BDE8F08F4046214629
:10039000F9E7001B61EB0201001C41F58013001816
:1003A0005B412018A2F5001747EB030140EAD57026
:1003B000B6196D4111E06D084FEA360645EAC07581
:1003C0004FEA0752001B61EB0201001C41F580114E
:1003D00049084FEA30000019514132462B4603B01C
:1003E000BDE8F04F00F0E5B900980122400000237D
:1003F000D0EB020263EBE073009821464FEAE07411
:10040000B8EB000061EB0401E9E783F000435BE730
:1004100081F0004158E72DE9FE4F81EA030404F022
:10042000004421F0004100944FF0000B23F0004302
:1004300050EA01045ED052EA03045BD0C3F30A54CD
:10044000C1F30A552C44A4F2F3340194A0FB0254E6
:10045000C1F3130141F48011C3F3130343F4801378
:1004600001FB024400FB034E840A970A44EA8154CC
:1004700047EA8357A4FB076802958D0A05FB0785A9
:100480004FEA932C04FB0C542705029D4FEA0658B3
:1004900047EA1637B5EB08056EEB070C870E920E90
:1004A00047EA811742EA8312A7FB0201B6EB0B0170
:1004B00064EB00042B0D43EA0C335E1844EB1C5034
:1004C000DA465146E7FB0201C5F313044FEA0B334A
:1004D00043EA14534FEA0432019C43EA0603A4F1B1
:1004E0000C040294009CCDE900B400F071F903B053
:1004F000BDE8F08F00200146F9E72DE9F04D81EAD3
:10050000030404F0004B21F0004514464FF0000AAC
:1005100023F0004150EA050220D054EA01021DD028
:10052000C5F30A570246C5F31303C1F31300C1F321
:100530000A5640F4801543F48013A7EB0608101BFD
:10054000D64608F2FD3873EB050002D308F1010826
:1005500001E092185B41B8F1000F03DA0020014678
:10056000BDE8F08D00204FF48011064684460EE071
:10057000171B73EB050705D3121B63EB050306433B
:100580004CEA010C49084FEA300092185B4150EAEE
:100590000107EDD152EA030012D082EA040083EA97
:1005A0000501084305D0101BAB4106D201220023F0
:1005B00006E000224FF0004302E06FF0010253100A
:1005C0001AEB06004CEB085110EB0A0041EB0B0153
:1005D000BDE8F04D00F0EDB80EB5C10F80EAE07057
:1005E0000844CA07002140F233438DE80E000A4652
:1005F0000B4600F0EDF803B000BD0EB540F23341FC
:1006000002910021CDE900110A460B4600F0E0F806
:1006100003B000BD70B5C1F30A5201F000450024DB
:10062000C1F3130140F2FF3341F480119A4201DA21
:10063000002070BD40F233439A42A2F2334203DC01
:10064000524200F05DF800E090402C43F1D040426F
:1006500070BDC1F30A5210B5C1F3130140F2FF336C
:1006600041F480119A4201DA002010BD40F2334378
:100670009A42A2F2334203DC524200F041F810BD2C
:10068000904010BD00F0004230F000400AD0C10D93
:1006900001F56071C0F3160042EA0151C20840073B
:1006A0001143704700200146704701F0004330B409
:1006B00021F0004150EA010206D00A0DA2F5607255
:1006C000C1F31301002A02DC30BC00207047440F44
:1006D00044EAC104C100E01830BC00EBC25000F095
:1006E00031B8202A04DB203A00FA02F100207047DA
:1006F0009140C2F1200320FA03F319439040704760
:10070000202A04DB203A21FA02F00021704721FA66
:1007100002F3D040C2F120029140084319467047CD
:10072000202A06DBCB17203A41FA02F043EAE073B5
:1007300006E041FA02F3D040C2F1200291400843A2
:10074000194670470029A8BF7047401C490008BFE0
:1007500020F00100704710B4B0FA80FC00FA0CF0F1
:1007600050EA010404BF10BC704749B1CCF1200429
:1007700021FA04F411FA0CF118BF012121430843B6
:10078000A3EB0C01CB1D4FEA00614FEA102042BFE2
:10079000002010BC704700EBC35010440029A4BFD8
:1007A00010BC7047401C490008BF20F0010010BC7D
:1007B000704710B5141E73F1000408DA401C41F1B3
:1007C000000192185B411A4301D120F0010010BDD5
:1007D0002DE9F04D92469B4611B1B1FA81F202E04B
:1007E000B0FA80F220329046FFF77BFF04460F46B6
:1007F00040EA0A0041EA0B0153465A46084313D027
:10080000114653EA010019D0C8F140025046FFF7E3
:1008100077FF05460E46504659464246FFF761FFB0
:10082000084305D0012004E020463946BDE8F08D9C
:100830000020054346EAE0762C4337430A986305D7
:10084000E40AA0EB08000022FD0A44EA47540A30FB
:1008500002D500200146E9E7010510196941DDE9EB
:10086000084500196941BDE8F04DA2E72DE9F04DBA
:1008700000231A461B1A8A4103DB00200146BDE80B
:10088000F08DC1F30A52C1F3130141F480154FF00A
:10089000000BD10702D100186D41521E00270446FB
:1008A00040F2FF11384601EB620A3E46804602469E
:1008B00000204FF48011FFF723FFC2197141BB18CC
:1008C00046EB0100B4EB030C75EB000C04D3E41A07
:1008D00065EB000517460E46241908F101006D412D
:1008E00080463428E3DDF91946EB0600091BA841D0
:1008F00003D24FF0FF32134601E0002213461BEBF8
:10090000070046EB0A51BDE8F04DFFF752BF00006B
:100910001CB509480090094801900546009C06E076
:10092000E06840F0010394E8070098471034AC42B7
:10093000F6D3FFF755FC0000C8440108E84401085D
:1009400070B58C1810F8015B15F0070301D110F891
:10095000013B2A1106D110F8012B03E010F8016BBE
:1009600001F8016B5B1EF9D12B0705D40023521E41
:100970000DD401F8013BFAE710F8013BCB1A921CA9
:1009800003E013F8015B01F8015B521EF9D5A142A7
:10099000D8D3002070BD000010B540F20804C2F2A8
:1009A0000004014620462822FFF763FCA079411E7F
:1009B00017299EBF41F27411C2F20001887010BD68
:1009C00040F20800C2F20000D0F80F10D0F8172053
:1009D00000EE101A40F60821C2F2000191ED011A52
:1009E00030EE410AB0EEC00A01EE102AB4EE410A20
:1009F000F1EE10FA14DAD0F8132091ED020AD0F8D3
:100A00001B0001EE102A31EE400AB0EEC00A01EEE2
:100A1000100AB4EE410AF1EE10FABCBF0120704793
:100A20000020704782B040F23C06C2F2000696ED0C
:100A3000000A40F2DC376FF00300C2F2000700BF8B
:100A400039180430102881ED010AF9D140F2F0354F
:100A50009FED47AA40F2703441F2201B40F608286F
:100A600040F2304A9FED43CA40F26C39C2F20005B1
:100A7000B2EE088AB3EE009A381FB1EE04BAC2F2A1
:100A80000004C2F2000BC2F20008C2F2000AC2F275
:100A9000000901903AE000BF30689BF80010C4F8EC
:100AA0002900002085ED000A642938BF012008F1E3
:100AB000040384F832000FCBC4F80910C4F8050011
:100AC000DAE90E01C4F80D2080F00040C4F82100DE
:100AD0004846C4F81130C4F81D1001F061FAD4F88A
:100AE000010020EE0C0A01EE100AB8EE411A30EEB9
:100AF000010ABCEEC00A10EE100AC4F8010020463C
:100B000033210EF069FF012010F0F2FF41F21810BE
:100B1000C2F20000D0F8030095ED001A00EE100AB2
:100B2000B4EE410AF1EE10FAB6D0B4EE480AF1EE96
:100B300010FAB1DDB4EE490AF1EE10FAACDA97E83A
:100B40000F0007F1040C8CE80F0001990520B0EEAE
:100B50004A1A87ED000A00BF91ED012A043131EEF7
:100B6000021A0138F8D181EE0B1A86ED001A93E7CC
:100B7000000000000024744941F20000C4F60000A7
:100B80000821012203F078BE41F20000C4F6000003
:100B90000821002203F070BE41F20000C4F60000FC
:100BA0001021012203F068BE41F20000C4F60000EB
:100BB0001021002203F060BE2DE9F04F81B02DED31
:100BC000108B8CB00D4640F23801C2F2000142F6A3
:100BD000A0240860C2F200040020207010F09CFDE8
:100BE00021780843207010F043FE21784FF6080268
:100BF000084320704FF610004FF60C014FF6040327
:100C00004FF60007C0F60700C0F60701C0F607025E
:100C1000C0F60703C0F607070068096812681B687A
:100C20003F6840F69846C2F20006012DC6E90073FF
:100C3000C6E90221306172D196ED000AB7EE001AC2
:100C4000B4EE410AF1EE10FA69D00020CDE90A00B5
:100C500001F0DEF940F22844C2F2000484ED000AFB
:100C600001F0D6F994ED001AB2EE04BA30EE410A62
:100C7000B4EE4B0AF1EE10FA70DD40F2A43043F608
:100C8000AC0141F2B062C2F20000C3F62231C3F6F9
:100C9000CE1241F23F63C0E909120021C4F21B13D6
:100CA000C4F22021C0E90B23816140F2A430C2F2DA
:100CB000000090ED0C0A9FEDDA1A40F6984481EEA0
:100CC000001A4FF07E5100F12407C2F200048CCFCD
:100CD00084E88E000021C4F22021816184ED040AA1
:100CE00080ED081A7F2001F095FB4FF60005D4E94E
:100CF0000023C0F60705284601F00CFCD4E90223C6
:100D000005F1080001F006FCD4E9042305F1100008
:100D100001F000FC42F6A024C2F2000417E096EDB8
:100D2000040A9FEDBF1A40F2A43081EE001A331D71
:100D3000C2F200000ECB00F1240C8CE80E00002162
:100D4000C4F2202180ED0C0A816180ED081A207820
:100D50000CB0BDEC108B01B0BDE8F08F0AA80138D3
:100D600004AE0390301F07AF42F6A82B0290381F45
:100D70009FEDAC8A40F2A439C2F2000B9FEDAADAD3
:100D8000DFEDAA8ADFEDAA9ADFEDAAAA9FEDAA9A63
:100D90000190C2F20009ABF10400B6EE00CAB4EE55
:100DA00000EAB3EE07FA009010E000BF01F030F95E
:100DB00040F22840C2F2000090ED001A30EE410AE5
:100DC000B4EE4B0AF1EE10FA3FF757AFB0EE480A17
:100DD00001F0CAF84FF0000AC9E909AAC9E90BAA4B
:100DE000FFF7D2FE922000F0C1F9922000F0BEF988
:100DF000039C4FF0060800BF552000F0B7F9A8F19A
:100E000001085FEA086104F8010FF5D1FFF7B4FEAD
:100E1000BDF92800BDF92A1000EE100A40F230009A
:100E2000C2F2000090ED001AB8EEC00ABDF92C2005
:100E300021EE002A00EE101AB8EEC00A21EE003AA8
:100E400000EE102AB8EEC00A21EE001A23EE030AC3
:100E500022EE024A34EE000A21EE014A34EE000A84
:100E6000B1EEC0AA89ED002A89ED013A89ED021A96
:100E7000B4EE4AAAF1EE10FA80F1CD8099ED0C0A99
:100E80003AEE000A89ED0C0AFFF78EFE802000F092
:100E90006DF9039D082400BF552000F067F9013C5F
:100EA000210605F8010FF7D1FFF776FE9DF828001F
:100EB0000F2835D1BDF92A00BDF92C1000EE100A1B
:100EC00040F23400C2F2000090ED001AB8EEC00A01
:100ED00099ED092A21EE000A89ED030A32EE000A93
:100EE00002EE101ABDF92E2099ED0A3AB8EEC22A88
:100EF00021EE022A89ED042A33EE022A03EE102A9B
:100F000099ED0B4AB8EEC33A21EE031A89ED051AA2
:100F100034EE011A89ED090A89ED0A2A89ED0B1AC6
:100F2000BAF1000F2AD0002009EB000191ED030A6D
:100F3000391891ED001AB4EE410AF1EE10FAC8BF6B
:100F400081ED000A311891ED001A0430B4EE410A27
:100F5000F1EE10FAB8BF81ED000A0C28E4D1B4EE2E
:100F60006CAAF1EE10FAB4EE6BAAC8BFF0EE4ACA52
:100F7000F1EE10FAB8BFF0EE4ABA0DE0D9F814104D
:100F8000D9E90302F0EE4ACACDE90821CDE904020D
:100F9000CDE90610F0EE4ABA42F6A4203CEEEB0A88
:100FA000C2F20000029ADDE9001380ED000A03207E
:100FB00093ED011A92ED012A043331EE421A043204
:100FC00081ED011A04310138F2D1B4EE4C0AF1EE90
:100FD00010FA33DC9BED000AB4EE690AF1EE10FA68
:100FE0002CDC9BED010AB4EE690AF1EE10FA25DC67
:100FF0009BED020AB4EE690AF1EE10FA1EDCB0EEC7
:10100000490A00F0B1FF42F20F7082450AF1010A6D
:10101000FFF4E6AE12E012F090F8B0EE40AA2DE731
:10102000C3F51C410AD7A33B00401C46CDCC1CC1D4
:101030009A99193E0AD7233C6F12033A99ED0C0A8C
:1010400009F1200180EE0D0A032089ED0C0A00BF92
:1010500091ED010A013880EE0D0A81ED010A01F1DE
:101060000401F5D1FFF790FDA22000F07FF8A22047
:1010700000F07CF8039D0224552000F077F8013C35
:10108000210605F8010FF7D1FFF776FD9DF928003D
:101090009DF82920C1B2C90041EA521100284FF63B
:1010A0000000CFF6FF7048BF014300EE101AB8EE03
:1010B000C00A20EE0E0A42F6A42130EE0F0A42F6D4
:1010C0009822C2F2000189ED060AC2F2000291EDF7
:1010D000000A1088B4EE4C0A0130F1EE10FA1080CC
:1010E0003FF764AE99ED0C0A30EE280AB0EEC00A64
:1010F000B4EE4C0AF1EE10FA3FF758AE9BED000A41
:10110000B4EE690AF1EE10FA3FF750AE9BED010A1A
:10111000B4EE690AF1EE10FA3FF748AE9BED020A11
:10112000B4EE690AF1EE10FA3FF740AE99ED090A04
:10113000B0EEC00AB4EE6A0AF1EE10FA3FF736AE2E
:1011400099ED0A0AB0EEC00AB4EE6A0AF1EE10FA9E
:101150003FF72CAE99ED0B0AB0EEC00AB4EE6A0A66
:10116000F1EE10FA3FF722AE9FE5000080B582B0A5
:1011700040F23801C2F200010B688DF807004FF40D
:101180007A7C0DF107010DF1060218460123CDF816
:1011900000C005F03FFC9DF8060002B080BD0000D5
:1011A000FEE7000010B543F67804C2F200042046C2
:1011B00005F0F0FE20460021BDE8104006F03EBCE0
:1011C00040F2F831C2F200010870704743F678042B
:1011D000C2F20004204605F0DDFE204600214FF05B
:1011E000000806F02BFC40F2F836C2F20006312768
:1011F00063254FF0320941F2EF0A40F6780B06E022
:1012000040F2F836C2F2000686F8008017E0307827
:10121000122814D8DFE810F0170052012C01070142
:101220006100C50013001300130013001300FD013B
:10123000170259023A024300E900A70024000A20DD
:1012400010F056FCE3E7206800218762C562E56084
:10125000C0F83490204686F8008006F0A3FCEEE744
:1012600020460021002606F0E9FB00BF20688762C7
:10127000C0F82CA0C4F80CA0C0F834B0642010F062
:1012800037FC20688762C562E560C0F8349064204E
:1012900010F02EFC072E06F10106E7D3B0E720463A
:1012A0000021002606F0CAFB20688762C0F82CA047
:1012B000C4F80CA0C0F834B0642010F019FC206809
:1012C0008762C562E560C0F83490642010F010FCBD
:1012D000042E06F10106E7D392E72046002106F02E
:1012E000ADFB20684FF457684FF4D7618762C0F8B0
:1012F0002C80C4F80C804163322010F0F9FB206888
:101300008762C562E560C0F83490962010F0F0FB6B
:1013100020684FF4D7618762C0F82C80C4F80C8035
:101320004163322010F0E4FB20688762C562E5600B
:10133000C0F83490962010F0DBFB20684FF4D761A2
:101340008762C0F82C80C4F80C80416332204FF0D3
:10135000000810F0CDFB20688762C562E560C0F828
:10136000349096206CE120460021002606F066FBB2
:1013700020688762C0F82CA0C4F80CA0C0F834B074
:10138000642010F0B5FB20688762C562E560C0F894
:101390003490642010F0ACFB062E06F10106E7D372
:1013A0002EE72046002106F049FB20684FF45761E4
:1013B0008762C162E1604FF4D7614163C82010F0D9
:1013C00097FB20688762C0F82CA0C4F80CA0C0F876
:1013D00034B0C82010F08CFB206841F226418762AF
:1013E000C162E16040F6132140E020460021002662
:1013F00006F024FB20688762C0F82CA0C4F80CA07B
:10140000C0F834B0642010F073FB20688762C562B6
:10141000E560C0F83490642010F06AFB052E06F1F8
:101420000106E7D3ECE62046002106F007FB206822
:101430008762C0F82CA0C4F80CA0C0F834B0C82053
:1014400010F056FB206841F226418762C162E160DC
:1014500040F613214163C82010F04AFB206841F692
:1014600063118762C162E16040F6B241416323E0EB
:101470002046002106F0E2FA206841F663118762F7
:10148000C162E16040F6B2414163C82010F030FB18
:10149000206841F226418762C162E16040F6132173
:1014A0004163C82010F024FB20688762C0F82CA09C
:1014B000C4F80CA0C0F834B0C820C1E02046002118
:1014C00006F0BCFA206841F663118762C162E160F0
:1014D00040F6B2414163C82010F00AFB20688762E1
:1014E000C562E560C0F83490322010F001FB20683E
:1014F00041F29F684FF435618762C0F82C80C4F8D0
:101500000C804163C82010F0F3FA20688762C5623E
:10151000E560C0F83490322010F0EAFA206841F219
:1015200026418762C162E16040F613214163C82011
:1015300010F0DEFA20688762C562E560C0F834907A
:10154000322010F0D5FA20684FF435618762C0F878
:101550002C80C4F80C804163C82010F0C9FA2068C0
:101560008762C562E560C0F83490322010F0C0FA9E
:1015700020688762C0F82CA0C4F80CA0C0F834B072
:10158000C82010F0B5FA20688762C562E560C0F82F
:101590003490322010F0ACFA20684FF45761876223
:1015A000C162E1604FF4D7614163C82010F0A0FA36
:1015B00020688762C562E560C0F83490322010F080
:1015C00097FA206840F6167840F28B718762C0F86F
:1015D0002C80C4F80C8041634FF4FA7010F088FA44
:1015E00020688762C0F82CA0C4F80CA0C0F834B002
:1015F000FA2010F07DFA206840F28B718762C0F803
:101600002C80C4F80C804FF00008416340F2EE20BB
:1016100016E02046002106F011FA20688762C0F823
:101620002CA0C4F80CA0C0F834B0642010F060FA0C
:1016300020688762C562E560C0F83490642000BF0E
:1016400010F056FAE0E5204600214FF0000806F0C1
:10165000F5F900BF20688762C0F82CA0C4F80CA080
:10166000C0F834B0642010F043FA20688762C56285
:10167000E560C0F83490642010F03AFAB8F1000F39
:1016800008F10108E6D04FF00008BDE52046002132
:10169000002606F0D3F900BF20688762C0F82CA0AE
:1016A000C4F80CA0C0F834B0642010F021FA20680F
:1016B0008762C562E560C0F83490642010F018FAC3
:1016C000032E06F10106E7D39AE520460021002605
:1016D00006F0B4F920688762C0F82CA0C4F80CA00A
:1016E000C0F834B0642010F003FA20688762C56245
:1016F000E560C0F83490642010F0FAF9022E06F18B
:101700000106E7D37CE50000B0B588B004460025AB
:101710000120CDE9050540F2FF70079002A920469F
:10172000CDE90255049502F0CBF9204602210222B0
:101730000023009502F0F4F920460121002202F076
:10174000E1F808B0B0BD00002DE9F04387B043F2E6
:10175000E816C2F20006304602F0E4FD43F24C25E2
:10176000C2F20005284602F0DDFD43F2B028C2F2C5
:101770000008404602F0D6FD00274FF0010940F274
:10178000FF7401A93046CDE901770397CDE90497AD
:10179000069402F095F930460221022200230097B8
:1017A00002F0BEF930460121002202F0ABF801A997
:1017B0002846CDE90177CDE90379CDE9057402F03A
:1017C0007FF92846022102220023009702F0A8F99F
:1017D00028460121002202F095F801A94046CDE9F2
:1017E0000177CDE90379CDE9057402F069F9404646
:1017F000022102220023009702F092F940460121C3
:10180000002202F07FF807B0BDE8F083B0B58AB0DF
:101810000546019100200821CDE90200CDE9041020
:10182000CDE90600CDE9080001A92846144602F0DA
:10183000EDF801280BD101A92846224602F0E6F86E
:10184000012804D101A92846224602F0DFF80AB097
:10185000B0BD0000002070470020704710B542F670
:10186000B424C2F2000442F28021C2F200012046F8
:1018700000220CF0A1FE41F68021C2F200012046B8
:101880000CF090FE002010BD70B542F6B42605465F
:10189000C2F200060C46304629460CF083FE304664
:1018A0000CF01EFE216828460EF080F8002070BD66
:1018B0000020704742F6B422C2F20002D2F8BC22E5
:1018C000D2F81432002B1CBF0120704710B542F62D
:1018D000B424C2F200040A46014620460CF06CFE15
:1018E0002046BDE810400CF0D5BE000086B04FF495
:1018F0007A7010F0FDF840F230449FED588A9FED69
:1019000058AAC2F20004B1EE049A04F5D270B0EE07
:10191000490AF0EE480AB0EE481AF0EE481AB0EE66
:10192000482AF0EE4A2A059009F0C6FB04F5F87043
:10193000B0EE490AF0EE480AB0EE481AF0EE481A46
:10194000B0EE482AF0EE4A2A049009F0B5FB04F5FF
:101950000F70B0EE490AF0EE480AB0EE481AF0EE09
:10196000481AB0EE482AF0EE4A2A039009F0A4FB88
:1019700004F522794846B0EE490AF0EE480AB0EE86
:10198000481AF0EE481AB0EE482AF0EE4A2A09F05A
:1019900093FB9FED34AA9FED34BAB7EE00CAB0EEC8
:1019A00000DAB2EE04EA04F17400B0EE4A0AF0EE96
:1019B0004B0AB0EE4C1AF0EE481AB0EE4D2AF0EE9B
:1019C0004E2A09F079FB04F1C000B0EE4D2AF0EE8A
:1019D0004E2AB0EE4A0AF0EE4B0AB0EE4C1AF0EE88
:1019E000481A09F069FB9FED212A04F58670F3EE91
:1019F000012AB0EE4A0AF0EE4B0AB0EE4C1AF0EEB5
:101A0000481A09F059FBDFED1A2A04F5AC70B0EE64
:101A1000490AF0EE480AB0EE481AF0EE481AB0EE65
:101A2000482A09F049FB40F6A0279FED12CA9FED16
:101A300012EA41F2300BDFED11AADFED11CADFED42
:101A400011EADFED11FA04F15C0AC2F20007C2F2FA
:101A5000000BF8EE089A4FF0000830E0000000009C
:101A600000007A46CDCCCC3D0AD7233C9A99594008
:101A700000006143EE87103939B4483E39B448BE9E
:101A800000003443EE87103A9A99993EEE8710B9D8
:101A900043F2E810C2F200004FF40071002200236C
:101AA000C4F8A880C4F8F480C4F84081CDF8008060
:101AB000CDF8048009F0E2F9012010F019F8504641
:101AC00000F06EFA786AB96DD7F88C20B0EE409AC3
:101AD000D7F8C03008EE100A00EE101A38EE001ADF
:101AE00030EE480A02EE102A30EE420A32EE413A57
:101AF00031EE021A02EE103A1FED1C4A31EE021AC4
:101B000021EE041A81EE0EDA33EE021A30EE020AEA
:101B100061EE0CDA94ED111A2DEE892A20EE0CFA02
:101B200094ED120A32EE011A2FEE092A32EE000A63
:101B30009FEDF22A84ED111A84ED120A94ED130A36
:101B400029EE0D1A61EE028A94ED18AA38EE800A89
:101B500084ED130AB0EE4A0AC4ED0BDA84ED0CFAF8
:101B600084ED0DDA11F0D8F8B0EE40BAB0EE4A0AC2
:101B700011F0DEF92FEE000A2DEE8B1A71EE00BA8D
:101B8000B0EE4A0AC4ED0FBA11F0D2F9B0EE40BA85
:101B9000B0EE4A0A11F0C0F82FEE000A2DEE8B1AB3
:101BA00031EE400A94ED141A84ED0E0A20EE090A73
:101BB00094ED153A30EE010A2BEE891A31EE031A34
:101BC00094ED022A84ED151A9BED031A94ED164A42
:101BD00084ED140AB4EE421AB0EE080A38EE843AE4
:101BE000F1EE10FA29EE000A84ED10DA84ED163ACF
:101BF00008DDB4EE401AF1EE10FA03DB30EE021A03
:101C00000EE000BFB4EE421AF1EE10FA08DA29EE47
:101C1000293AB4EE431AF1EE10FAD8BF32EE031AA5
:101C20009BED042A94ED033A84ED021AB4EE432AA4
:101C3000F1EE10FA08DDB4EE402AF1EE10FA03DB03
:101C400030EE032A0EE000BFB4EE432AF1EE10FAA4
:101C500008DA29EE291AB4EE412AF1EE10FAD8BFBB
:101C600033EE012A9BED05BA94ED041A84ED032AA4
:101C7000B4EE41BAF1EE10FA06DD80EE0E2AB4EEB3
:101C800042BAF1EE10FA13DAB4EE41BAF1EE10FAFC
:101C900010DA29EE292A82EE0E2AB4EE42BAF1EECB
:101CA00010FA07DC80EE2A0A31EE00BA02E000BF2B
:101CB00032EE01BA9BED0D0A9FED911A9BF83B00A5
:101CC00020EE010A80EE2C9AD4ED02DA94ED03DACC
:101CD000052884ED04BAC4ED05DA84ED06DA84ED56
:101CE00007BA84ED189A17D1B7EE080A2DEE00DA7C
:101CF000B0EE490AC4F8208011F00EF8B0EE40AA08
:101D0000B0EE490A11F014F92DEE800A2DEE0A1AF0
:101D100031EE001A22E000BFB0EE490A10F0FCFFDD
:101D2000B0EE40AAB0EE490A11F002F92DEE000A19
:101D30002DEE8A1A31EE000A84ED080AB0EE490A47
:101D400010F0EAFFB0EE40AAB0EE490A11F0F0F848
:101D50002DEE800A2DEE0A1A31EE401A94ED082A73
:101D60002BEE2A4A31EE023A34EE435A85EE2E0A21
:101D700084ED091A31EE426A32EE411A059834EECA
:101D8000062A34EE011A34EE033AF0EE480A84EDE6
:101D90000ABA84ED195A84ED1A2A84ED1B1A84EDCF
:101DA0001C3A09F095F994ED1A0AB86D80EE2E0AE6
:101DB00000EE900A049809F08BF994ED1B0AD7F80D
:101DC0008C0080EE2E0A00EE900A039809F080F94C
:101DD00094ED1C0AD7F8C00080EE2E0A00EE900A9F
:101DE000484609F075F99BF83B0005280BD194EDA6
:101DF000790A94ED8C1A20EE2F0A84ED790A21EEEF
:101E00002F0A84ED8C0A41F22010C2F200004089B2
:101E10009BF83E1000EE100A0129B8EE400A2BD1C3
:101E20009BF83A009FED381AC0EB0010400030EEEE
:101E3000010A01EE100AB8EE412A9BED101A30EEAD
:101E4000020AB2EE002AB4EE421AF1EE10FA84ED64
:101E5000010A26DBB2EE082AB4EE421AF1EE10FABD
:101E60001FDCBAEE002A31EE021AB5EE002A21EE8E
:101E7000021A20EE010A12E041F20810C2F200003C
:101E800000899FED202A01EE100AB8EE411A32EEC9
:101E9000411AB9EE042A21EE021A31EE000A84ED4D
:101EA000010A94ED010A2046394609F0D3F99BF85E
:101EB000000000283FF4ECAD94ED790A94ED8C1A03
:101EC00094ED9F2ABDEEC00A94EDB23A10EE102AAE
:101ED000BDEEC10A10EE103ABDEEC20A10EE105A65
:101EE000BDEEC30A10EE106A43F2E810C2F2000021
:101EF0004FF40071CDE90056DCE500BFE02E6542ED
:101F0000DB0F49C0000020420000484232200FF0A1
:101F1000EFFD00BF0AF0FEFD01200FF0E9FDF9E73B
:101F200042F62860C2F2000001F086BB42F6E8608B
:101F3000C2F2000001F080BB42F6A870C2F20000BD
:101F400001F07ABB43F26800C2F2000001F074BBFA
:101F500043F22810C2F2000001F06EBB42F6E860C6
:101F6000C2F2000001F0C0BA41F2040040F208429F
:101F7000CEF20000C2F20002016892ED001AB8EE43
:101F8000411A20EE010A00BF0268521A01EE102A1F
:101F9000B8EE411AB4EE410AF1EE10FAF4DC7047E3
:101FA00080B582B041F2040CCEF2000CDCF80010D7
:101FB00040F208420091C2F20002DDF800E003683E
:101FC000126800990160DCF8000040F2204C01909A
:101FD000C2F2000C0199DCF80000814206D240F206
:101FE0002440C2F20000016801310160AEEB030041
:101FF00000EE100A01EE102A0198B8EE400AB8EE81
:10200000411A80EE010ACCF8000002B080BD000049
:102010002DE9F04383B041F20400CEF200000168E4
:1020200001910068029040F22040C2F20000029943
:102030000268914240F22441C2F2000102D20A68D1
:1020400001320A60029A002602600868019D4FF082
:10205000FF31E0FB015640F20841C2F2000140F2BC
:1020600018400F68C2F20000C0E900562846314609
:102070003A460023FEF7CCF88146A0FB07022D1A52
:1020800040F20C4001FB0721C2F2000007688E41BC
:1020900041F23048C2F20008284631463A46002351
:1020A000C8F80090FEF7B4F884B240F21041A8F8E6
:1020B000040004FB07F0C2F20001281A0A6866F166
:1020C00000010023FEF7A4F801EE104A9FED0D2A4F
:1020D00000EE109AB8EE411A81B2B8EE400A21EE35
:1020E000021A31EE000A01EE101A9FED072AB8EE2F
:1020F000411A21EE021A31EE000AA8F8060003B0D8
:10210000BDE8F0836F12833ABD37863510B54EF6C1
:10211000FC5CCEF2000CDCF8002044F24023C0F25C
:102120000F0342F08072584344F6D353CCF800209A
:1021300041F20002C1F26203CEF200024FF0000C45
:10214000A0FB033EC2F804C04DF683611368C4F2DD
:102150001B31A0FB011443F00101116040F2084162
:10216000C2F20001086040F20C414FEA9E10C2F238
:102170000001086040F21041A00CC2F200010860AA
:1021800040F22440C2F20000C0F800C010BD0000C0
:102190007047000040F6F07A40F2FA3540F2FC3623
:1021A00040F2FE3740F6A02BC2F2000A4FF00008C2
:1021B000C2F20005C2F20006C2F20007C2F2000B32
:1021C0004FF0640982E000BFBBF82E00411C88B2CA
:1021D0006428ABF82E1028BF8BF830806F2828BFFA
:1021E000ABF82E90BBF86200411C88B26428ABF8B3
:1021F000621028BF8BF864806F2828BFABF862900C
:10220000BBF89600411C88B26428ABF8961028BF32
:102210008BF898806F2828BFABF89690BBF8CA005F
:10222000411C88B26428ABF8CA1028BF8BF8CC8058
:102230006F2828BFABF8CA90BBF86601411C88B272
:102240006428ABF8661128BF8BF868816F2828BF17
:10225000ABF86691BBF89A01411C88B26428ABF8D0
:102260009A1128BF8BF89C816F2828BFABF89A91F0
:10227000BBF83201411C88B26428ABF8321128BF88
:102280008BF834816F2828BFABF83291BBF8CE01B0
:10229000411C88B26428ABF8CE1128BF8BF8D081DE
:1022A0006F2828BFABF8CE91BBF8FE00411C88B266
:1022B0006428ABF8FE1028BF8BF800816F284FF020
:1022C000010028BFABF8FE900FF012FCBAF8020034
:1022D000BAF807100130AAF8020082B2481CB2F521
:1022E000FA7FAAF8070080B222BF8AF80080C821CE
:1022F000AAF80210B0F5FA7F22BF8AF805804FF4E1
:10230000FA70AAF807009AF800009AF80510C0B20F
:10231000084315D109F0E0FD40F6B070C2F20000AC
:10232000A0F83B80C0F83780C0F83380C0F82F8019
:10233000C0F82B80C0F82780C0F82380C0F81F8029
:10234000318828880131013031803988288080B275
:102350000131652839800FD307F0F4FE43F2E81904
:10236000C2F20009484601F0DDFF48464FF064091B
:10237000FFF7CAF9A5F80080308865280DD307F06B
:102380000BFF43F24C24C2F20004204601F0CAFFC6
:102390002046FFF7B9F9A6F8008038886528FFF4D1
:1023A00013AF07F023FF43F2B024C2F2000420462B
:1023B00001F0B8FF2046FFF7A7F9A7F8008003E770
:1023C000EFF3108072B600BFFEE7000043F2E810A2
:1023D000C2F2000001F04EBC43F2E810C2F200006D
:1023E00001F048BC43F24C20C2F2000001F042BCB4
:1023F00043F24C20C2F2000001F03CBC43F2B0209A
:10240000C2F2000001F036BC43F2B020C2F200007C
:1024100001F030BC70B586B0044602F03FF942F2DC
:102420001000C4F202004FF40041016002200026B7
:10243000CDE90304012002AC01ADCDE901660590B0
:102440002046294601F090FF18B11D2E06F1010625
:10245000F6D302F061F806B070BD000040F27820BB
:10246000C2F20000027F02F0FD01012942F20001E8
:10247000C4F202010FD10B6823F400730B600B68E8
:1024800043F400630B600B6823F400630B600B687C
:1024900043F400730B6002F0FE02022A0BD10A68BB
:1024A00042F480520A600A6822F480520A600A6884
:1024B00042F480620A6000210177704770B542F2F1
:1024C00010060446C4F2020602F0DCF9054600BF1D
:1024D0003068C00306D502F0D5F9401BA042F7D9F9
:1024E000032070BD30684CF2FA31014009D040F24F
:1024F0007820C2F2000042680A4342600120316045
:1025000070BD3068C0074FF0000008BF70BD0121EA
:10251000316070BDF0B581B01C461546064602F02C
:10252000BDF842F21000C4F202004FF40041016015
:102530004FF4803100270160002031462A462346AF
:1025400001F0F6FF18B11D2F07F10107F4D301B018
:10255000BDE8F04001F0E0BFB0B541F23005C2F295
:10256000000595F83B00052888BFB0BDDFE800F006
:1025700003032A2D064200206861B0BD95F83A0099
:1025800095F83C10BBEE010AB3EE011A002908BF12
:10259000B0EE401A00EE100AB8EE400AB7EE002A7C
:1025A00030EE020A21EE000AB1EE081A80EE010AAE
:1025B00040F6A020C2F200000021C0F8D41085ED42
:1025C000050AB0BDD5ED0D0A22E095F83D00BEEE3E
:1025D000001A00EE100AB8EE400A30EE010A9FED34
:1025E000151A30EE000AD5ED0D0A41F2800420EEF6
:1025F000010A11E0D5ED0D0AB1EE041AB0EEE00AC1
:10260000B4EE410AF1EE10FA0EDD022085F83B002F
:1026100041F280049FED060AC2F20004204608F051
:1026200057FD206C6861B0BD052085F83B00A2E72E
:10263000000000000000344210B52DED028B04466E
:102640002030B0EE408AFFF7ABFC94ED041A94ED15
:10265000052A9FED113A31EE422A82EE000A9FEDE3
:102660000D2A84ED051A20EE020A80EE030A94ED8D
:10267000072AB7EE003A33EE483A23EE022A28EE54
:10268000000A30EE020A84ED060A84ED070ABDEC6A
:10269000028B10BD000070420000B4430000000037
:1026A00086B040F2487A9FEDB18A9FEDB19AC2F2AE
:1026B000000A9FEDAD1A0AF12000B2EE0E0AF0EE0C
:1026C000480AF0EE481AB0EE482AF0EE492A059082
:1026D00008F0F2FC9FEDA9AA9FEDA60A9FEDA62A9D
:1026E0000AF16C00F0EE080AF3EE041AB0EE481A94
:1026F000F0EE4A2A049008F0DFFCDFEDA12A0AF18F
:10270000B800B2EE040AF0EE480AB0EE491AF0EE54
:10271000481AB0EE482A039008F0CEFC9FED990AC3
:102720009FED992A0AF58270F7EE000AB0EE481A7A
:10273000F0EE481AF0EE4A2A029008F0BDFC9FED38
:10274000880B40F6082B41F2300840F208099FED53
:102750008FAA9FED8FBA40F6A0269FED8ECA9FEDFF
:102760008EDA9FED8EEAC2F2000BC2F20008C2F2CE
:102770000009C2F2000655EC104BB3EE0EFA00272A
:102780001BE000BF43F2B020C2F200004FF4FF7123
:10279000002200230097019708F070FB43F24C20C1
:1027A000C2F2000040F2FE310022002300970197A0
:1027B00008F0E8FB01200FF09BF9D9F80B109BED16
:1027C000010ADBF8080001EE101A30EE410ACAF8DF
:1027D0001C009BED068A98F83800B4EE4B0AF1EE27
:1027E00010FAB0EE4A1A8AED028A8AF800008AEDE1
:1027F000050A06DCB4EE4D0AF1EE10FAB0EE4C1A02
:1028000003DA30EE010A8AED050A02280CD199F8A4
:10281000050048B19AED050AD9F8070038EE400ADC
:1028200088ED060AC8F81C00D8F81C0098ED069A36
:10283000CAF81800D6F8D8008AED019AFDF722FFF1
:1028400022462B46FDF740FDFDF72FFF00EE100A54
:102850003CEE401AB4EE4B0AF1EE10FAB8BFB0EEFF
:10286000401A31EE0C0AB4EE4D1AF1EE10FAC8BF60
:10287000B0EE410A05988AED040A88ED0D0AB0EE23
:10288000490AF0EE480A08F023FC40F23040C2F258
:10289000000090ED0D0AD6F8F40080EE0E1A9AEDC5
:1028A000180A02EE100A049821EE0F1A71EE020ABD
:1028B00008F00EFC9AED060ADAED070A039808F014
:1028C00007FCD6F81C019AED3E0A80F0004000EEAD
:1028D000900A029808F0FCFB98F8000000283FF4EA
:1028E00051AF9BF8000000283FF44CAF9AF801006C
:1028F00040B143F24C20C2F2000040F2FE3108F039
:10290000CBFB14E098ED010A9AED2B1A43F24C2010
:1029100020EE010ABDEEC00A10EE102AC2F200003D
:1029200040F2FE3100230097019708F02BFB98ED51
:10293000010A9AED511A43F2B02021EE400ABDEE91
:10294000C00A10EE103AC2F200004FF4FF710022EC
:102950000097019708F092FA2CE700BF00BF00BF74
:10296000BD37860060ED6BC000009643000000009C
:1029700000004843000016430000964400008046D3
:102980000000C8420000C84300C05A450000B4C35C
:10299000000034430000B443000034C3DB0F49C0DF
:1029A00090F85820012A04BF0220704770B582B009
:1029B0000122002380F8582001930093026840F21E
:1029C000080CC5F2000CB2F1A04F0CF1F8050AD0CA
:1029D00040F20043C5F200039A4207D10CF59F6410
:1029E000002333B136E02C461BB133E00024012331
:1029F00083BBA368946823435B072BD44FF4E06345
:102A0000D1F800E0AA4208BF4FF44073B2F1A04FE2
:102A100008BF4FF440735CF80340BEF1000F24F48C
:102A2000604424D04D6890F8386042F4807245EAE2
:102A300046352C4340F20015C5F20005AA424CF879
:102A4000034026D1DCF80020DCF800412243D20705
:102A500046D128E0C16D41F02001C165012100226D
:102A600080F8582002B0BDE870400846704742F434
:102A7000807140F20012C5F2000291424CF803400E
:102A80001BD1DCF80010DCF800211143C90727D165
:102A90001DE0DCF80024DCF80045DCF80056224399
:102AA0002A43D2071CD15CF8032040F61F748968C2
:102AB000A243114341EA0E010EE0DCF80014DCF8F9
:102AC0000025DCF8006611433143C90708D15CF8E2
:102AD000031040F61F7291434CF803100021BEE72B
:102AE0000021BCE7F0B581B00022009290F8582098
:102AF000012A01D1022181E10123076880F85830C1
:102B0000BB685B0734D4D1E900361F22C6F3012528
:102B100007EB85052C6B06F01F06B240C3F38463F8
:102B200024EA0202B3401A432A63BA68BB6802F07F
:102B3000040203F00803D21840F0AC800A680426AF
:102B400007F1140306EAD25CC2F340668D6853F8BD
:102B50002660C2F304540722A240B5F1004F26EAD2
:102B600002060BD143F80C601A6842F000430DE0F6
:102B7000C16D41F02001C16501213CE105FA04F27B
:102B8000324343F80C201A6822F000437B61D1E9FC
:102B90000436FD68042B50D13A6E3A6E0B68C2F3CE
:102BA000846293FAA3F6B6FA86F65D0308BFC3F310
:102BB00084664FF6FF73B242C0F2070303D13A6E48
:102BC00022F000423A667A6E7A6E0E68C2F3846230
:102BD00096FAA6F5B5FA85F51E4208BFC6F38465D8
:102BE000AA4203D17A6E22F000427A66BA6EBA6EB9
:102BF0000E68C2F3846296FAA6F5B5FA85F51E4210
:102C000008BFC6F38465AA4203D1BA6E22F000421F
:102C1000BA66FA6EFA6E0E68C2F3846296FAA6F588
:102C2000B5FA85F51E4208BFC6F38465AA4231D1C4
:102C3000FA6E22F00042FA662CE0062202EA9502C1
:102C400006FA02FC0E6807F1600555F823404FF2C2
:102C50000002C0F2FF3206F0F846224046EA0C06B7
:102C6000324342F0004245F823200A698B6955F847
:102C7000226026F08076334345F822300A690B7FC4
:102C800055F82260012B26F0007608BF06F1007689
:102C900045F82260BA68D20743D10E68CA68D7F8EF
:102CA000B05033466FF3DF4325EA030C4FF6FF7550
:102CB00002F01804C0F20705E54000243540C4F2D4
:102CC0007F0445EA0C05A242C7F8B05029D196FA14
:102CD000A6F2B2FA82F2002B08BFB20E013202F065
:102CE0001E0302F01F0201260025964002EB42025D
:102CF000CFF6206505EB0255354345F000750A2BEC
:102D000038BF46EA0255C5F3406307EB83038A6880
:102D10005E69C5F304550724AC40A643AA4032437C
:102D20005A610D680021C8F208010D4262D040F2DC
:102D3000083EC5F2000E0EF58063AEF5027419462A
:102D4000A74204BF40F20831C5F20001B7F1A04F1D
:102D500004BF40F20831C5F200010E680022CCF237
:102D60002132954206F0E07C04D01022C9F2C00264
:102D700095422ED132022CD440F20062C5F20002FC
:102D8000974202D0B7F1A04F34D10A6822F0E07226
:102D900042EA0C0242F400020A6040F21C11C2F244
:102DA0000001096842F663528909C0F23E52A1FB54
:102DB0000212910901EB41010C2202EB8101009109
:102DC0000099B9B100990139009100990029F9D110
:102DD00010E00022CCF25272954212D10022B2EBE6
:102DE0001C6F0ED10A6822F0E07242EA0C0242F037
:102DF00080720A600021002280F85820084601B045
:102E0000F0BD0021CCF684318D424FF0000108BFA7
:102E100016F48002EFD1B7F1A04F0AD040F20011B2
:102E2000C5F200018F42E5D0391BB1FA81F14909A1
:102E300000E00121002918BF7346196821F0E071F4
:102E400041EA0C0141F480011960D3E770B582B00A
:102E500000210028019142D0C16D39B9044600F02B
:102E600009F920460021216684F85810026891680B
:102E700089004FF6C071C5F6FF7102D593680B400B
:102E800093609368DB001DD4936801F18051194071
:102E900041F08051916040F21C11C2F200010968BA
:102EA00042F663538909C0F23E53A1FB031399090B
:102EB000022303EB410100BF0191019911B1019976
:102EC0000139F9E79168C9000BD4C16D012641F0C1
:102ED0001001C165016E41F00101016602E00126A9
:102EE000B7E000269368C46D03F0040304F01004F7
:102EF0001B19C36D77D123F481730233C3659368C3
:102F0000DB072AD140F2001442F48073C5F20004BA
:102F100040F2080CA342C5F2000C40F09D80DCF8A2
:102F20000040DCF800311C43E30716D10CF1F80334
:102F30004FF4E064D0F804E09A4208BF4FF44074C4
:102F4000B2F1A04F08BF4FF440745CF8043023F492
:102F50007C1343EA0E034CF80430437FC46BD0E982
:102F6000021544EA43332B4390F824501943012DB2
:102F700041EA054306D1816A0025CFF6FE7505EBCF
:102F800041410B43C46A24B1016B04F478752943B1
:102F90000B43D16844F20705CFF6F0752940194379
:102FA000D1601169436B21F040611943116191684F
:102FB00009073FD490F83810037F490041EA833174
:102FC000D36844F20205AB431943D1600369146925
:102FD0006BB144F480311161D2F8C01043F6FF7533
:102FE000A9430B430CE043F01002012630E024F427
:102FF00080311161D2F8C01043F6FF7321EA030358
:10300000C2F8C03090F84010136901290FD140F286
:10301000FD7123EA010CD0E91135D0E9134143EAEF
:103020000C032B432343194341F0010301E023F038
:10303000010313614169136B012923F00F0302D1CE
:10304000016A01390B431363C26D012161F301026F
:10305000C265304602B070BDDCF800E4DCF8004523
:10306000DCF8003644EA0E041C43E3073FF45EAF8D
:1030700073E7000010B59CB0044600201B90CDE91A
:103080001900CDE9170002A85421FDF70BF92068BB
:1030900040F20041C5F20001884201D01CB010BDD1
:1030A0004FF4803002904FF00040149002A802F0DC
:1030B000A7FD002818BFFFF783F941F24C00C4F2C6
:1030C0000200016841F480410160016801F480411F
:1030D00001910199016841F010010160006817A990
:1030E00000F01000019001988020179003201890A4
:1030F0000020199041F20000C4F6000001F0E6FA49
:103100001CB010BDB0B5CB070FD14FF0010C4FF084
:10311000000EBEF1000F06D000684161816821F009
:103120001801114381606046B0BD1F233BB1013BD4
:1031300003F01F0421FA04F4E407F7D001E04FF094
:10314000FF334FEAF205032DDFD84FF0000C4FF0AC
:10315000010EDFE805F002030E19DAE7102B4FF03D
:10316000000E38BF4FF0010E0F2B88BF4FF0010C3F
:10317000CFE7082B4FF0000E38BF4FF0010E072BA2
:1031800088BF4FF0010CC4E7072B4FF0000E38BF8B
:103190004FF0010E062B88BF4FF0010CB9E700007D
:1031A000002804BF0120704710B50446407F20B9B5
:1031B00000202077204600F031F802206077207947
:1031C00048B1D4E902122046FFF79CFF00281CBF3B
:1031D000012010BD09E0206841F6B751C0F2C1419D
:1031E0004161816821F0180181606079002814BF75
:1031F00020694FF0FF302168D4E905230861886811
:1032000020F0600010438860886820F08000184338
:10321000886001206077002010BD0000006843F244
:103220000001C4F20201884218BF704781B041F228
:103230004800C4F20200016841F480510160006856
:1032400000F480500090009801B070472DE9F041E3
:10325000044600284FF0010018BF002901D1BDE845
:10326000F081607901284FF0020008BFBDE8F081CD
:103270008B680127042B677120713CD10F461546DE
:1032800001F000FB22682E46516B002D054616D03A
:10329000B1F1FF3F08DD786A3946506414E000BFA1
:1032A0002268506B0028F6D501F0ECFA401B02288A
:1032B000F6D32068406BB0F1FF3FF1DC43E0080437
:1032C00038D4786A3946106420683246836C06F038
:1032D000100740F2FF36D1E90A5CBE40B34305FA5D
:1032E00007F633438364C36CFF26BE40B3430CFA36
:1032F00007F73B43C364C86902F01005012809D1F0
:1033000020681F23826B0F6AAB409A4307FA05F3CC
:103310001A4382632068D0F83CC08A69012A1AD017
:10332000022A1BD14FF001081DE000BF2268506B3C
:103330000004C6D501F0A6FA401B0228F6D3206887
:10334000406B0004F2D5206940F0080020610320A2
:103350002071BDE8F0814FF0000804E04A69B2FA3C
:1033600082F24FEA52188B684F69087940F20736AB
:1033700043EA080306FA05FE4A7943EA07060128EC
:1033800008BF46F48076012A08BF46F400766FF441
:1033900040400A6880EA0E00022A00EA0C070BD1BE
:1033A000884602F06DFF46F60101C0F68911884299
:1033B00004D347F4004709E0174308E04BF200410B
:1033C000C0F2C441884288BF47F48047414606FAAC
:1033D00005F220683A43C2634FF480420368AA4072
:1033E00023EA02020260026840F6FE73D1E9031785
:1033F000AB409A4301FA05F31A430260C022036806
:10340000AA4023EA02020260C1F3830107F03C02F2
:1034100041EA8211026E40F60F73AB409A43A94015
:10342000114301660120207100206071BDE8F08128
:10343000002804BF01207047017941B910B500216F
:103440004171044600F00CF82046BDE8104002210E
:1034500001710021012201610271084670470000DC
:10346000006841F20001C5F20001884218BF7047B0
:1034700081B041F24C00C4F20200016841F48021A5
:103480000160006800F480200090009801B070474F
:1034900090F82520012A1CBF0120704790F82420B5
:1034A000012A04BF02207047B0B5826C1368D1F8BE
:1034B0000CE05FFA83FC0023CFF6F87303EBCE4EEB
:1034C000D1E900340D7A4CEA03632343497A43EA95
:1034D0000E0343EA054343EA41211160002180F8CD
:1034E00024100020B0BD000010B5D0E913231168EE
:1034F0000B4211D0846CD0F834C02168BCF1000FAD
:1035000021F4807121605360C16B41F40071C1638B
:1035100002D00446E0472046416D99B1D0E9162318
:103520001468234208BF10BD0C6824F480740C603A
:103530005360C16B41F48061C163416B11B1BDE85F
:103540001040084710BD0000014690F825000228F1
:1035500027D180B50868D1E910CE8A6C036823F0C2
:103560000E030360136823F480731360026822F073
:10357000010202600EF01F00012202FA00F0CCF8F6
:103580000400D1E913205060486D30B1026822F484
:1035900080720260D1E9160242600020BDE88040DE
:1035A00002E00420C8630120012281F825200022C6
:1035B00081F824207047000090F82510022930D1AE
:1035C00080B50168D0E910CE826C0B6823F00E0341
:1035D0000B600B6823F001030B60116821F480710C
:1035E00011600EF01F02012101FA02F2CCF8042052
:1035F000D0E913325A60426D32B1136823F48073FC
:103600001360D0E91623536080F82510826B0021E7
:1036100080F824100AB190470021BDE88040084698
:1036200070470421C1630121002280F8251080F831
:103630002420084670470000B0B5D0E910C30268E6
:10364000DCF8001003F01F030424D2F800E09C40D3
:103650000C4218BF1EF004051BD102249C400C42F2
:1036600018BF1EF0020520D1D94009071CD51EF055
:10367000080108BFB0BD116821F00E0111600121E1
:1036800001FA03F2CCF80420C16380F82510416BE5
:1036900018E01168890603D4116821F00401116053
:1036A000CCF80440016B91B9B0BD1168890606D40D
:1036B000116821F00A011160012180F82510CCF871
:1036C0000440C16A0022002980F82420ECD0BDE823
:1036D000B040084700284FF0010C00F08A802DE927
:1036E000F04F0021C4F2020103684FF6F83201F5F1
:1036F000816ECBF6FD72734538BF02F580624CF6E1
:10370000CD441A44CCF6CC44A2FB042903F0FC02BD
:10371000A2F10802A2FB042800F1080B01F5806465
:103720006FF003069BE8040C3CBF0024C4F20204C3
:1037300001F5026506EA9906734538BF01F5006593
:10374000C0E91046022480F825401C6847F6F0774F
:1037500024EA0707D0E9054147EA0A0747EA0B07C9
:10376000D0E907E93C43214341EA0E0141EA09015E
:10377000114319600021C4F2020101F50861C1641E
:10378000C8F3041173190CFA01F58364B2F5804F84
:10379000056504BF00214160476840F68401FAB224
:1037A0001A607B1EC4F20201032B0D6012D8013A8D
:1037B00001EB8203002702F01F02012643F87C7F01
:1037C00001F1BC0706FA02F2C0E91537C265C1F87B
:1037D000C02003E00021C0E91511C1654FF0000CC5
:1037E0000121C0F83CC080F8251080F824C0BDE855
:1037F000F04F60467047000090F824C0BCF1010F04
:1038000043D04FF0010C80F824C090F825C0BCF1E3
:10381000010F37D12DE9F0414FF0020C80F825C09F
:103820004FF0000CC0F83CC0D0F800C000F14C0EC6
:103830009EE83040DCF80060BEF1000F26F0010683
:10384000CCF8006065601CBFD0E916456560D0E922
:103850001056846806F01F060127D0F8308007FA5A
:1038600006F66E60CCF80430102C0B4604BF1346ED
:103870000A46B8F1000FCCF80830CCF80C2006D07E
:103880000E210BE0002180F8241002207047DCF8A4
:10389000001021F00401CCF800100A21DCF800200F
:1038A0001143CCF80010806C0168C90303D501688E
:1038B00041F480710160BEF1000F05D0DEF8000018
:1038C00040F48070CEF80000DCF8000040F0010009
:1038D000CCF800000020BDE8F0810000B0B504463F
:1038E00000F0D0FF054640F25C30C2F200000068F4
:1038F000611C18BF044400BF00F0C4FF401BA0427D
:10390000FAD3B0BD10B590F85C30013B012B66D8FE
:1039100000685FEA417ED0F858C00CF0010300D087
:103920001BB311F0380F02D01CF002041DD011F4AB
:10393000E07F02D01CF0040417D011F4F05F02D035
:103940001CF0080411D011F4604F02D01CF01004D8
:103950000BD011F4403F02D01CF0200405D011F42C
:103960007C0F06D01CF0400403D1C46D44F0010468
:10397000C465BEF1000F18BF002B38D111F0380F0D
:1039800018BF1CF0020332D111F4E07F18BF1CF005
:1039900004032CD111F4F05F18BF1CF0080326D1EA
:1039A00011F4604F18BF1CF0100320D111F4403FF8
:1039B00018BF1CF020031AD111F47C0F18BF1CF0A3
:1039C000400314D10B0618D4CB0504D5D0F8E03051
:1039D0001A43C0F8E02000F15402002003E000F197
:1039E00060020120022113681943116010BDC36DEC
:1039F00043F00203C3650B06E6D5D0F8DC30134371
:103A0000C0F8DC30CB05E1D4E5E7000090F85C308D
:103A1000022B16D12DE9F041D0F800E0DEF8C430D9
:103A20009B0214D4DEF8C430D1E900768C680D69AD
:103A3000C3F3014C96B144EA07032B4343F080489B
:103A400010E0016E41F00801016601207047016E2F
:103A500041F4007101660120BDE8F08145EA874329
:103A600043EA040801F11407F0CF46EA076635433C
:103A7000CB682C43456D0CEBCC0644EA034305EBC5
:103A8000C60445F836806360CB6883B144F21C05F8
:103A900004F1080303320024C0F60105161956F894
:103AA000036C1E51CE680434AE5DB442F6D30121DE
:103AB00001FA0CF1CEF8CC1081650020BDE8F08150
:103AC00090F85C20013A012A14D880B50A68BAB18E
:103AD00001F1040E9EE80450D1E90431406C43EA40
:103AE0004E7E41EA8C7100EBC20340F832E059602F
:103AF000002080BD016E41F0020101660120704787
:103B0000D1E90323D1E901CED206496942EA8E7296
:103B100042EA0342006C114340F82C10002080BDA3
:103B200090F85CC0BCF1010F14D180B50068920020
:103B3000D0F880C0DDF808E042EA011141EA430113
:103B40002CF03F0C41EA0E0141EA0C01C0F8801054
:103B5000002080BD016E41F0040101660120704724
:103B6000704700007047000070B590F85C50022D5F
:103B70000FD104684029A4460FD15CF8905F2D074F
:103B800017D0DCF800504FF0480EED010FD5092595
:103B900016E0016E41F008010EE05CF8985F2D0719
:103BA00007D0DCF800504FF04C0EED0107D4002494
:103BB0000BE0016E41F480710166012070BD0825A3
:103BC000D4F88040EC4004F00104DCF8005050F8D8
:103BD0000EE0C5F3012505EB040C0CEBCC045EF8FC
:103BE000345015F0804555605EF8345025F060463D
:103BF00008BFC5F38A4616605EF8345005F00055DC
:103C000095605EF834500EEBC40405F00046166172
:103C1000A688D661E68816F00F06D660666806F4B8
:103C200080165661666806F400169661E67906F01D
:103C30007F06166266684FEAD67656620ED044F268
:103C40001C0E08340025C0F6010E00BF665D5E55EF
:103C5000D66801351EF80660B542F7D300684029E2
:103C60000CBFC0F894C0C0F89CC0002070BD00001C
:103C7000704700002DE9F04F85B004460068016DE3
:103C8000426DD0F850B0456D076D466D036D01EA89
:103C900002080493436D0393036D0293436D0193F4
:103CA000D0F854A0D0F850905FEA496307D51AF0D5
:103CB000400104D0402101652046FFF7D9FF0BEAFF
:103CC000050B5FEAC95008F4E0550ED51AF4807070
:103CD0000BD02068D0F8D810D0F8E02011404FF475
:103CE00080720265204600F037FB37400BF0070674
:103CF0002DB1206829460565204600F031FB07F00C
:103D000038052EB1206831460665204600F03CFAA1
:103D10002DB1206829460565204600F001FB5FEAC9
:103D2000895009D51AF4007006D020684FF400714C
:103D30000165204600F016FB5FEA09600DD51AF018
:103D400080000AD02068D0F8D410D0F8DC201140D0
:103D500080220265204600F001FB5FEA894009D518
:103D60001AF4005006D020684FF400510165204637
:103D700000F0F0FA5FEA0940DDE9011000EA010510
:103D800009D51AF4004006D020684FF400410165BF
:103D9000204600F0DDFADDE9031008405FEA494102
:103DA00005F460210AD51AF4804207D022684FF446
:103DB00080431365226E42F08002226600F4710592
:103DC00021B1206801652046FFF7CCFE25B12068AF
:103DD0000565206E28432066206E28B1204605B078
:103DE000BDE8F04FFFF7BCBE05B0BDE8F08F0000A6
:103DF000002804BF01207047F0B581B0044690F858
:103E00005C0028B9002084F85D00204600F0EAF844
:103E10002068816921F01001816100F033FD0546C1
:103E200020688169090705D500F02CFD401B0B288F
:103E3000F6D310E0816941F00101816100F022FDBB
:103E4000054600BF20688169C9070BD100F01AFD43
:103E5000401B0B28F6D3206E032140F001002066A2
:103E60000120BBE0826946F2004CC4F2000C42F033
:103E700002026045826102D16268CCF80021227C96
:103E80008369012A23F0400318BF40338361627CB9
:103E90008369012A23F4804308BF03F580438361CB
:103EA000A27C8369012A23F4805318BF03F5805351
:103EB00083618569D4E902E325F4407545EA0E057E
:103EC0008561856925F0A4058561056925F01005E2
:103ED00005619BB1012B0DD0022B09D08569032B05
:103EE00045F080058561056945F01005056105D13E
:103EF000202300E0042385692B43836104F114052A
:103F00002ACD226A6FF0FF075E1E07EB052545EA02
:103F10004665013A2A430025CFF6FF7505EB0141BE
:103F20001143BEF5407FC16110D104F1240646CE95
:103F3000236B013A07EB06273A436FF00F0707EBB5
:103F400003131A4305EB01411143C160D4E90D137A
:103F5000E26BD0F8C0704AF250763A43C0F8C02005
:103F60000CF580670CF58042B84204BF4AF25072EB
:103F7000C4F200020CF50067C4F20006B84208BFA4
:103F800006F554722264D0F8807027F4F81747EAD7
:103F90000141C0F8801002F170016164D0F8801016
:103FA00021F0706141EA0361C0F8801002F1B000B5
:103FB000A06402F5C470E06402F51870206502F593
:103FC0001E70606502F55470002100BF42F8041BAA
:103FD0008242FBD300200121A065206684F85C109A
:103FE00001B0F0BDB0B59CB0044600201B90CDE9F7
:103FF0001900CDE9170002A85421FCF753F92068F5
:1040000046F60041C4F2000188426DD046F6000138
:10401000C4F20001884237D046F20041C4F20001E8
:10402000884240F0AE804FF4805002904FF0007014
:10403000109002A801F0E4FD002818BFFEF7C0F9B7
:1040400040F69801C2F200010A6841F24C00C4F245
:104050000200531C0B6042B9C16841F00071C1609D
:10406000C16801F00071019101990168162441F0C5
:10407000020101600068152500F00200019001981E
:1040800009204FF440715EE04FF4805002904FF0F1
:104090000070109002A801F0B3FD002818BFFEF7D1
:1040A0008FF940F69801C2F200010A6841F24C0013
:1040B000C4F20200531C0B6042B9C16841F00071A8
:1040C000C160C16801F00071019101990168572434
:1040D00041F0020101600068562500F002000190E5
:1040E0000198092060212EE04FF4805002904FF09B
:1040F0000070109002A801F083FD002818BFFEF7A1
:104100005FF940F69801C2F200010A6841F24C00E2
:10411000C4F20200531C0B6042B9C16841F0007147
:10412000C160C16801F000710191019901685924D1
:1041300041F0020101600068582500F00200019082
:1041400001980B20182117910221189100211B9032
:1041500040F20040CDE91911C4F6000017A900F0A3
:10416000B5FA28460521002200F020FD284600F07F
:104170000BFD20460521002200F018FD204600F02E
:1041800003FD1CB0B0BD000010B58AB040F2004382
:10419000C2F200036A4640210446FFF7E5FC43F201
:1041A000E81CC2F2000C644505D140F2FA31C2F2BB
:1041B000000100220A8043F24C23C2F200039C4219
:1041C00005D140F2FC31C2F2000100220A8043F224
:1041D000B021C2F200018C4205D140F2FE32C2F29F
:1041E000000200201080BDF800208C4211D140F266
:1041F000062082420DD140F6A020C2F2000000F558
:10420000827140F20040C2F2000006F057FE0AB090
:1042100010BD9C4211D140F2013082420DD140F6D6
:10422000A020C2F2000000F1D00140F20040C2F232
:10423000000006F0C7FE0AB010BD9C4208BFB2F5F0
:10424000017F0CD08C4211D140F2022082420DD16C
:1042500040F6A020C2F2000000F59C71D1E740F6C4
:10426000A020C2F2000000F5D071CAE78C420AD14A
:1042700040F20120824206D140F6A020C2F20000A6
:1042800000F5B671BDE764450CD140F201208242D1
:1042900008D140F2004040F6A021C2F20000C2F274
:1042A0000001B2E764450AD140F20220824206D101
:1042B00040F6A020C2F2000000F13401A1E76445FD
:1042C0000AD140F20320824206D140F6A020C2F279
:1042D000000000F1680194E7644508BFB2F5017F72
:1042E0000FD0644508BF312A12D08C4208BF022A81
:1042F00005D140F20040C2F2000004F0E1FF0AB034
:1043000010BD40F6A020C2F2000000F19C0178E749
:1043100040F20040C2F2000008F01EFC0AB010BDDE
:104320007047000090F85C1001290BD1022180F841
:104330005C1001688A6922F001028A61002101662D
:1043400000207047016E41F00401016601207047B2
:104350007047000070470000704700007047000081
:1043600070470000704700002DE9F04740F27829BF
:10437000C2F2000999F80020012A04BF0220BDE81A
:10438000F0870546012089F800004FF47A708846CE
:10439000FEF794F8002840F0BA8042F2140700219A
:1043A000C4F20207C9F8041057F8141C57F8142C6B
:1043B000520502D4C1F340210BE057F8142C11F43C
:1043C00000714FF0030122F4806208BF022147F818
:1043D000142C89F81C102968012906D16868F9682D
:1043E000490240D448F2040047E04FF0FF31C8F8DA
:1043F0000010D5E9024121448C4251D2E60040F23E
:10440000FA3A00BF6868F968490203D4386820F4B2
:10441000006006E0C00739680CBF41F4006021F479
:1044200000603860386806F4FF6120F47E7008434D
:104430003860386840F002003860386840F48030F6
:1044400038604FF47A70FEF739F8396821EA0A01CA
:10445000396018BBD5E90212013411448C4206F1CF
:104460000806CFD31CE0C10703D0396841F004012E
:104470003960800704D54FF400403968084338603C
:10448000386840F4803038604FF47A70FEF716F8E0
:10449000396848F204029143396001E0C8F80040ED
:1044A00099F81C1001F0FD02012A17D157F8142CBD
:1044B00022F4007247F8142C57F8142C42F40062CE
:1044C00047F8142C57F8142C22F4006247F8142CE7
:1044D00057F8142C42F4007247F8142C01F0FE0136
:1044E000022911D157F8141C41F4805147F8141CCB
:1044F00057F8141C21F4805147F8141C57F8141C69
:1045000041F4806147F8141C002189F81C10002137
:1045100089F80010BDE8F08742F21400C4F20200EE
:10452000016841F0004101600068C043C00F70475E
:104530002DE9F04740F27829C2F20009924699F835
:104540000020012A04BF0220BDE8F087044642F2A1
:104550001005012098460E46C4F2020589F80000B5
:1045600000F090F9074600BF2868C00308D500F0A6
:1045700089F9C01BB0F57A7FF6D90320002117E036
:1045800028684CF2FA3110EA010207D0D9F8040089
:1045900011461043C9F80400012005E028680121F4
:1045A000C0074FF0000003D0B2FA82F2296051092F
:1045B00000296DD00020C9F8040055F8101C4905E9
:1045C00006D555F8100C20F4806045F8100C022038
:1045D00089F81C000CB3022C2DD86868AAF10402DB
:1045E00040F480206860EFF31080EFF3108172B622
:1045F000311F402352F8047F013B1E0641F8047F1F
:10460000F8D1A71E18BF012780F310886FF4802609
:10461000022C18BF4FF0FF3610E06868002740F00A
:1046200001006860C6F800A0BFF36F8FC6F8048071
:104630006FF0010602E04FF0FF36012700F022F98B
:10464000044600BF2868C00307D500F01BF9001B13
:10465000B0F57A7FF6D9032012E028684CF2FA31DF
:10466000014006D0D9F804000843C9F8040001202D
:1046700005E02868C0074FF0000001D00121296043
:10468000044617B9686830406860FDF7E7FE2046C9
:10469000002189F80010BDE8F087000042F2080010
:1046A000C4F20200C168B1F1FF3FC4BF00207047EF
:1046B00040F22311C4F26751016048F6AB11CCF609
:1046C000EF510160C068C00F704700002DE9F04F46
:1046D00083B00E68002E00F0C68000F1200241F287
:1046E000004C009200F13847C4F6000C06224FEA55
:1046F000B725604508BF0522052D38BF4FEAB72210
:10470000002500274FF0000A01920AE00E680AF126
:10471000010A36FA0AF207F1020705F1040500F072
:10472000A280012202FA0AFC16EA0C09EED0D1F8A6
:1047300004B003220BF00308A8F10106012E02FACF
:1047400007F610D8D0F808E0CC682EEA0602BC4084
:10475000224382604268CBF3001422EA0C0204FA7E
:104760000AF422434260B8F1030F1ED0C2688C687D
:10477000B243BC402243B8F1020FC26015D16FF0C2
:104780000302009C02EA5A0B54F80BC005F01C030C
:104790000F22D1F8108002FA03FE2CEA0E0C08FA60
:1047A00003F343EA0C0344F80B3002684B68B2434E
:1047B00003F00306BE40324313F4403F0260A5D02D
:1047C00041F26003C4F202031A6840F2004E42F064
:1047D00001021A601A68C4F2010E02F0010202928C
:1047E000029A2AF003024FF6084C7244CFF6FF7C7F
:1047F00052F80C3005F00C060F24B440A343019C82
:1048000004FA06F6334342F80C30DEF808204B6811
:1048100042EA090640F20C4CDC0258BF22EA0906C3
:10482000CEF80860C4F2010CDCF800209C0242EAD9
:10483000090658BF22EA0906CCF80060DEF8042019
:104840009C0342EA090658BF22EA0906CEF8046032
:10485000DEF80020DB0342EA090658BF22EA090617
:10486000CEF8006052E703B0BDE8F08F0069084061
:1048700018BF0120704700001823002A08BF282312
:10488000C15070474CF2F800C2F200000068704757
:1048900090F84120202A03D190F84020012A01D12C
:1048A00002207047242280F841200268136823F018
:1048B00001031360136823F48053136013681943D2
:1048C0001160116841F001011160202180F8411050
:1048D000002180F8401000207047000090F841202F
:1048E000202A03D190F84020012A01D102207047EC
:1048F000242280F841200268136823F0010313602A
:10490000136823F4706343EA01211160116841F0D8
:1049100001011160202180F84110002180F8401031
:1049200000207047002804BF0120704710B590F8A0
:10493000411031B9002180F84010044600F046F8DB
:104940002046242180F8411090E80610C4680B68C6
:1049500022F0706223F001030B600A618A68012C67
:1049600022F400428A604FF4044208BF4FF4004230
:1049700042EA0C028A604A68022C22F4006208BFF4
:1049800002F500624A604A6800F1100442F00072C9
:1049900042F400424A60CA6822F40042CA601CCC59
:1049A0001A4342EA0422CA60D0E907231A430A6084
:1049B0000A6842F001020A6000212022416480F866
:1049C0004120016380F84210002010BDB0B59CB0BA
:1049D0000446002502A854211B95CDE91955CDE9BF
:1049E0001755FBF75FFC206845F60001C4F2000193
:1049F000884201D01CB0B0BD8020029002A80A9568
:104A000001F0FEF8002818BFFDF7DAFC41F24C0473
:104A1000C4F20204206817A940F001002060206859
:104A200000F00100019001984FF44070179012209F
:104A300018900120199002201A9004201B904FF02A
:104A40009040FFF743FEE06840F48000E060E068DB
:104A500000F48000019001981CB0B0BD40F25C30C1
:104A60004CF2F801C2F20000C2F2000100680A68CC
:104A7000104408607047000080B5032000F0C2F8C1
:104A80000F2000F009F800281CBF012080BD00F0B5
:104A900057F8002080BD0000B0B586B041F260013B
:104AA000C4F202010A68044642F480120A600968EE
:104AB00001A801F4801101910199694601F0BEFB42
:104AC00001F0FAFB4DF68361C4F21B31A0FB01013A
:104AD0004FF0FF3000EB914143F2E07045F20002ED
:104AE000C2F20000C4F2010240F2E7330025C0E93F
:104AF0000021C0E90253056102F0C6F908B106B011
:104B0000B0BD43F2E070C2F2000002F09BFA002850
:104B1000F5D105464E2000F037F80F2C0CD84E206A
:104B20002146002200F042F840F26030C2F200005C
:104B30000460284606B0B0BD012006B0B0BD00003C
:104B400080B582B041F25800C4F2020081680022B0
:104B500041F001018160816801F001010191019939
:104B6000016841F08051016000680F2100F0805021
:104B7000009000986FF0010000F018F802B0BDE856
:104B8000804001F033B80000002848BF704700F0B3
:104B90001F01012202FA01F11C2202EAD0004EF2AA
:104BA0000012CEF2000281507047000010B54EF6A0
:104BB0000C5CCEF2000CDCF80030C3F3022E8EF059
:104BC0000704042C28BF0424BEF103034FF0FF3E6A
:104BD0000EFA04F438BF0023A14399400EFA03F300
:104BE0009A43114300F1604200F00F03090102F5FE
:104BF0006442043B6344002848BF03F10C02117077
:104C000010BD00004EF60C51CEF200010A684FF6BE
:104C1000FF031A4060F30A2242F0806040F0FD700A
:104C20000860704738B190F83A10052903D090F821
:104C30003A10022901D1012070472DE9F04381B0DB
:104C400041F26001C4F202010A6843F6116742F0C2
:104C500001020A600968CEF2000701F0010100912B
:104C6000009990F83A100446002904BF002180F80A
:104C7000391000F063F8D4F808C04CF02001602926
:104C80001FD1D4E9001ED4F810800D68E66A25F023
:104C900010052E430E600E68D4E90950374047EAEC
:104CA0000E07267D47EA0807D4E90C232F43012E7F
:104CB00008BF47F48077384340EAC24040EA0362C5
:104CC00020E0D4E90018D4E9039E0E68E56A26F0D6
:104CD00010062E430E600E68D4E90953374047EAA8
:104CE000080747EA0907267D47EA0E07D4E90C02C0
:104CF0002F43012E08BF47F480773B4343EAC0406F
:104D000040EA026242EA0C000860206881690029DA
:104D100009D4816904F118078CCF21F03F011143B8
:104D200019433943816194F83A00002804BF0120F7
:104D300084F83A00002001B0BDE8F08380B586B069
:104D4000006840F21432C4F2010200219042CDE921
:104D50000411CDE90211019101D006B080BD41F2EC
:104D60004C00C4F20200026842F0020202600068D5
:104D700000F00200009000984FF4006001900320C2
:104D8000CDE9020140F20040C4F6000001A9FFF79E
:104D90009DFC06B080BD000001220168C0F8D02251
:104DA000002280F8C822B1F8540040F00100A1F8B8
:104DB0005400B1F8540040F002020020A1F8542041
:104DC0007047000010B50129044612D009BB607A73
:104DD00048B107F00BFF4EF61050CEF2000001680C
:104DE00021F006010160D4F8D802BDE8104009F0B6
:104DF00077BED4F8D80209F0F9FE607A002808BF1F
:104E000010BD4EF61050CEF20000016841F00601D0
:104E1000016010BD80B501F0070C0CEB8C0C00EBB1
:104E2000CC0C0CF1100C01EB810E090600EBCE004E
:104E300058BF00F5A87C3AB10120ACF808301B0C33
:104E40000A218CF80C0003E000208CF80C000621ED
:104E500000202CF8013080BD01EB8102D0F8D8325F
:104E600000EBC200426A184609F0FEBC01EB810269
:104E7000D0F8D83200EBC200D0F86421184609F00F
:104E800047BD000010B54FFA81FC4FF4A87201F045
:104E9000070EBCF1000F48BF102290F89042024468
:104EA0000EEB8E034FEAD11C02EBC301012C81F8FB
:104EB00001C002F833E004BF022010BD02680123E4
:104EC00080F89032044610460AF0CCFA002084F8AC
:104ED000900210BDB0B5027901F00F03934284BF78
:104EE0000120B0BD4AB24FF4A874002A48BF102474
:104EF00001F0070E021990F890420EEB8E034FEA74
:104F0000D11C02EBC301012C4FF0000481F801C059
:104F10008C7002F833E004BF0220B0BD02680123A8
:104F200080F89032054610460AF02CFB204685F8A2
:104F30009042B0BD01F0070101EB810100EBC1001F
:104F4000D0F86C0170470000B0B54FFA81FC4FF407
:104F5000A87401F0070EBCF1000F48BF10240444F0
:104F60000EEB8E054FEAD11C04EBC5016FF3DF2277
:104F700081F801C004F835E00A61022BCB7004BF50
:104F800000220A7190F89022012A04BF0220B0BDCD
:104F90000268012380F89032044610460AF0E0F8D7
:104FA000002084F89002B0BD10B501F0070C0CEBA6
:104FB0008C0100EBC10E00680EF5A8710024CEF83C
:104FC0006421CEF86831CEF86C418EF851418EF8EC
:104FD00050C10AF027FB002010BD0000B0B50279D7
:104FE00001F0070E96454FF0010427D84FFA81FCD7
:104FF0004FF4A8737246BCF1000F4CBF10230A4651
:10500000034402EB82024FEAD11C03EBC20181F898
:1050100001C090F890C28C70BCF1010F03F832E02F
:1050200004BF0220B0BD0268012380F8903205461B
:1050300010460AF0DDFA002485F890422046B0BD03
:1050400080B501F0070C0CEB8C0100EBC10101F8FD
:1050500010CF00684FF0010C01F1140781F824C053
:105060004FF0000E87E80C400B6281F801C00AF097
:10507000D9FA002080BD00002DE9F04F83B004462E
:1050800000680AF079FC01041DD4410500F1978302
:10509000410400F1A583810400F1B683C10400F14D
:1050A000B983010500F1DB83010600F1ED83810581
:1050B00000F1FA83C00540F190832068B0F84410F5
:1050C00021F48071C6E32068B0F94410B1F1FF3FCC
:1050D00000F3838304F5A871019104F1100148F2F3
:1050E000C005029104F5267140F60F78009122E088
:1050F000B0F8501094F85021014401EBC201B1F80E
:105100000634B4F8562100996FF39F23C4F86C312C
:105110000AF036FC2068018801EA0801803101802C
:10512000204600F0B7FC00BF2068B0F94410B1F190
:10513000FF3F00F35283B0F8442012F00F090DD066
:1051400030F929104FEA490BB1F1FF3F1FFA81FAFC
:105150002EDD5FEA0A60E7D528E100BF0188D206AC
:105160005DD401EA080101F500410180B0F850105A
:10517000227C084400EBC200B0F80204616A6FF3BD
:105180009F20E0620844606220460021FFF764FE31
:10519000207B0028C8D0A06A0028C5D1207B2168C8
:1051A00040F08000C0B2A1F84C0000202073BBE7A3
:1051B00030F81B1001EA0801803120F81B10019A19
:1051C00009EB890102EBC106317B00296AD0F17835
:1051D000022976D1B0F850303178B26903445FEAE1
:1051E0004A4703EBC10300F18380B3F80674002340
:1051F0006FF39F27D21B38BF1A46B26140F28D80F1
:105200005FEA4A6200F1978030F8212002EA080242
:105210002A4320F82120002F40F08E80A9E00A05C3
:105220003FF566AF09B2B1F1FF3F3FF77DAF0188AF
:1052300001EA080180310180B0F8501094F8502143
:10524000014401EBC201B1F806346FF39F23C4F8A7
:105250006C318BB1D4F8641171B1B4F856210AF0F5
:105260008FFBD4F86401D4F86C110844C4F86401CD
:1052700020460021FFF7FAFD206801880A053FF566
:1052800053AF01F44051B1F5405F3FF44DAF018899
:1052900043F60F7211404CF28002A2F58052514049
:1052A000018041E7B0F850103278014401EBC201AF
:1052B000B1F806746FF39F27002F5AD07169F288F6
:1052C00054E0327830F8221001EA0801294320F82E
:1052D000221030F82230B0F85010D20002445B04A3
:1052E000114414D4B1F806746FF39F2727BB40E034
:1052F000B3F8027400236FF39F27D21B38BF1A46FE
:10530000B2611CD95FEA4A6226D46FBB31E0B1F8C2
:1053100002746FF39F273FBB2BE030F8212043F648
:105320000F731A4005F5FE535A4020F821205FEA1A
:105330004A627FF569AFE7B17169728916E030F8AA
:10534000212043F60F731A4005F5FE535A4020F80A
:1053500021205FEA4A62D8D530F8212002EA08020B
:105360002A4320F8212027B1716932893B460AF08F
:1053700007FBF169D6E9050239443844F1617061EF
:1053800012B13069B84208D931782046FFF76EFD76
:105390005FEA0A607FF5C8AE08E0206831460AF08F
:1053A00041F95FEA0A607FF5BFAE00BF206809EBF4
:1053B000890130F81B20029B03EBC10602EA0801B9
:1053C00001F5004120F81B10F378012B21D1317B2E
:1053D00000294FF00001B16100F0F7805FEA4A61F7
:1053E00073D47178012900F0DD80002940F0ED8050
:1053F000B0F850103278084400EBC200B0F8061440
:105400006FF39F21A0F80614B0F8061441F4004190
:10541000CFE05FEACA511CD4B0F850203178024482
:1054200002EBC102B2F80224B3696FF39F229B1A08
:105430004FF0000738BF3B46B36140F2C780716947
:10544000F369114471619918F16131460AF0EAF883
:105450006AE6B0F850503178B2695FEA4A674FEABD
:10546000C10E00EBC10746D407F2064C3CF80550CC
:1054700000276FF39F25521B38BF3A46B26168D9A7
:105480005FEA4A4208D430F821204CF2800302EA55
:1054900008021A4320F8212096F82410012940F030
:1054A0007F81D6E90431D6E9077229442F449A4214
:1054B0007161F76180F0BF80002A00F02481002331
:1054C000336286F82430134621E17178012973D0C4
:1054D00000297AD1B0F850103278084400EBC200AD
:1054E000B0F802146FF39F21A0F80214B0F8021470
:1054F00041F4004167E007F2024C3CF805500027F8
:105500006FF39F25521B38BF3A46B26137D95FEA25
:105510004A4208D530F821204CF2800302EA080202
:105520001A4320F8212096F82410012940F03881F0
:10553000D6E90431D6E9072729442A449F427161FC
:10554000F2617BD20022002F86F8242078D12F46EA
:1055500077E07578012D3DD0002D40F09280B0F8B5
:1055600050200EEB00073A44B2F802746FF39F2705
:10557000A2F80274B2F8027447F4004730E075787C
:10558000012D40D0002D40F09A80B0F850203CF81A
:1055900002706FF39F272CF802703CF8027047F4FA
:1055A000004732E0B0F850103278084400EBC200F7
:1055B0000021A0F8061408E0B0F850103278084432
:1055C00000EBC2000021A0F8021431782046FFF75A
:1055D00043FCA9E5B0F850200EEB00073A44002741
:1055E000012DA2F8027447D0002D4AD1B0F8502006
:1055F0003CF802706FF39F272CF802703CF80270A1
:1056000047F400473BE0B0F85020012D2CF8027021
:105610004DD0002D53D1B0F850200EEB00073A4486
:10562000B2F806746FF39F27A2F80674B2F80674F6
:1056300047F4004741E0D21A326268E0FA1A1F4686
:1056400032627278012A59D0002A40F09380B0F873
:105650005020002F3CF802306FF39F232CF80230CB
:1056600073D03E2F77D807F001033CF8025003EBCC
:10567000570345EA83237BE0B0F8502000272CF83D
:105680000270022B48F2C00509D130F8212040F603
:105690003F731A40A5F120035A4020F821202046EC
:1056A000FFF7DAFB5FEA4A403FF53EAD1CE0B0F899
:1056B00050200EEB00073A440027A2F80674022B94
:1056C00048F2C00509D130F8212040F63F731A4056
:1056D000A5F120035A4020F821202046FFF7BCFB0B
:1056E0005FEA4A407FF520AD206831784CF28003B4
:1056F00030F8212002EA08021A435DE0B0F8502099
:105700002CF8027036E0002286F824202B467278AE
:10571000012A15D0002A3FD1B0F850703CF807207C
:105720006FF39F222CF8072093B13E2B25D803F06E
:1057300001023CF8075002EB530245EA822229E0BD
:10574000B0F850202CF8023026E03CF802300DE092
:105750003CF807201CE07B09FD063CF802E04FF016
:10576000FF3508BF05EB57134EEA832343F400438C
:105770002CF802303289BBB210E05A09DD063CF841
:1057800007E04FF0FF3508BF05EB53124EEA8222C7
:1057900042F400422CF8072072899BB20AF026F9E5
:1057A0002068317840F63F7330F8212048F2C00578
:1057B0001A40A5F110035A4020F82120B4E42068D3
:1057C000B0F8441021F48061A0F84410204600F0A5
:1057D00023F994F89002012808D103B0BDE8F08FB6
:1057E0002068B0F8441021F4804133E00120002506
:1057F00084F890022573206800210AF0EFF884F8FD
:10580000905203B0BDE8F08F2068B0F8441021F446
:1058100000511FE02068B0F8401021F00401A0F80A
:105820004010B0F8401021F00801A0F8401094F8A2
:10583000C802012806D1002084F8C80220460021B1
:10584000FFF7C0FA204600F0F9F82068B0F84410DD
:1058500021F48051A0F8441003B0BDE8F08F216816
:10586000B1F8400040F00800A1F84000B1F8440051
:1058700020F40060A1F84400B1F8400040F00402B8
:105880002046A1F840200AE02068B0F8441021F03A
:105890008001A0F8441094F8C81291B1204603B0DA
:1058A000BDE8F04F00F014B92168B1F8440020F4CD
:1058B00000722046A1F8442003B0BDE8F04F00F08C
:1058C000D1B8B0F8401041F00401A0F84010B0F891
:1058D000401041F00801A0F84010012184F8C812DE
:1058E000B0F854003C2101EA900220460121C4F89E
:1058F000CC2203B0BDE8F04FFFF764BA002804BF24
:1059000001207047B0B5044690F8910228B90020F4
:1059100084F89002204600F04BF8032084F89102AE
:10592000206809F025FE94F804C0BCF1000F14D0E3
:105930000CEB8C00C10000224FF0010E0020002370
:10594000251828302B74814203F1010385F811E0FA
:10595000EA74C5E90822AA62F2D1BCF1000F15D0A1
:105960000CEB8C00C000002100220023A518283277
:1059700085F85031904203F1010385F8511185F803
:105980005311C5E95811C5F86811EFD194E8070023
:1059900009F0E0FD00200121207384F89112A17A22
:1059A000012918BFB0BD2046FFF7F6F90020B0BDB1
:1059B00010B596B0044601A85421FAF773FC20688C
:1059C00045F60041C4F20001884201D016B010BD76
:1059D0004FF4005001900020109001A800F010F941
:1059E000002818BFFCF7ECFC41F25800C4F202009A
:1059F0000168002241F4000101600068052100F403
:105A00000000009000981420FFF7D0F81420FFF752
:105A1000BBF816B010BD000010B50446407902284E
:105A200018BFFCF7CDFCD4F8D802012109F074F8B6
:105A3000D4F8D802BDE8104009F020B810B50446EB
:105A4000407A48B14EF61050CEF20000016821F0C5
:105A50000601016007F0CAF8D4F8D802BDE810408A
:105A600009F03EB8D0F8D80209F044B890F8902276
:105A7000012A04BF0220704710B5012280F890224D
:105A8000017302680446104609F0A8FF002084F85C
:105A9000900210BDD0F8D82200F52671104609F00A
:105AA00051B8000090F89012012904BF02207047FD
:105AB00010B50168012280F890220446084609F0DA
:105AC0004BFF206809F03CFD002084F8900210BDD7
:105AD00010B50446D0F8D80209F088F8607A00289A
